:020000040000fa
:080000000001040000000000f3
:020000040000fa
:0400080044020000ae
:020000040000fa
:04000c0044020000aa
:020000040000fa
:0400100044020000a6
:020000040000fa
:0400140044020000a2
:020000040000fa
:04001800440200009e
:020000040000fa
:04001c00440200009a
:020000040000fa
:040020004402000096
:020000040000fa
:040024004402000092
:020000040000fa
:04002800440200008e
:020000040000fa
:04002c00440200008a
:020000040000fa
:040030004402000086
:020000040000fa
:0400340024020000a2
:020000040000fa
:04003800440200007e
:020000040000fa
:04003c00440200007a
:020000040000fa
:040040004402000076
:020000040000fa
:040044004402000072
:020000040000fa
:04004800440200006e
:020000040000fa
:04004c00440200006a
:020000040000fa
:040050004402000066
:020000040000fa
:040054004402000062
:020000040000fa
:04005800440200005e
:020000040000fa
:04005c00440200005a
:020000040000fa
:040060004402000056
:020000040000fa
:040064004402000052
:020000040000fa
:04006800440200004e
:020000040000fa
:04006c00440200004a
:020000040000fa
:040070004402000046
:020000040000fa
:040074000402000082
:020000040000fa
:04007800440200003e
:020000040000fa
:04007c00440200003a
:020000040000fa
:040080004402000036
:020000040000fa
:040084004402000032
:020000040000fa
:04008800440200002e
:020000040000fa
:04008c00440200002a
:020000040000fa
:040090004402000026
:020000040000fa
:040094004402000022
:020000040000fa
:04009800440200001e
:020000040000fa
:04009c00440200001a
:020000040000fa
:0400a0004402000016
:020000040000fa
:0400a4004402000012
:020000040000fa
:0400a800440200000e
:020000040000fa
:0400ac00440200000a
:020000040000fa
:0400b0004402000006
:020000040000fa
:0400b4004402000002
:020000040000fa
:0400b80044020000fe
:020000040000fa
:0400bc0044020000fa
:020000040000fa
:0400c00044020000f6
:020000040000fa
:0400c40044020000f2
:020000040000fa
:0400c80044020000ee
:020000040000fa
:0400cc0044020000ea
:020000040000fa
:0400d00044020000e6
:020000040000fa
:0400d40044020000e2
:020000040000fa
:0400d80044020000de
:020000040000fa
:0400dc0044020000da
:020000040000fa
:0400e00044020000d6
:020000040000fa
:0400e40044020000d2
:020000040000fa
:0400e80044020000ce
:020000040000fa
:0400ec0044020000ca
:020000040000fa
:0400f00044020000c6
:020000040000fa
:0400f40044020000c2
:020000040000fa
:0400f80044020000be
:020000040000fa
:0400fc0044020000ba
:020000040000fa
:0401000044020000b5
:020000040000fa
:0401040044020000b1
:020000040000fa
:0401080044020000ad
:020000040000fa
:04010c0044020000a9
:020000040000fa
:0401100044020000a5
:020000040000fa
:0401140044020000a1
:020000040000fa
:04011800440200009d
:020000040000fa
:04011c004402000099
:020000040000fa
:040120004402000095
:020000040000fa
:040124004402000091
:020000040000fa
:04012800440200008d
:020000040000fa
:04012c004402000089
:020000040000fa
:040130004402000085
:020000040000fa
:040134004402000081
:020000040000fa
:04013800440200007d
:020000040000fa
:04013c004402000079
:020000040000fa
:040140004402000075
:020000040000fa
:040144004402000071
:020000040000fa
:04014800440200006d
:020000040000fa
:04014c004402000069
:020000040000fa
:040150004402000065
:020000040000fa
:040154004402000061
:020000040000fa
:04015800440200005d
:020000040000fa
:04015c004402000059
:020000040000fa
:040160004402000055
:020000040000fa
:040164004402000051
:020000040000fa
:04016800440200004d
:020000040000fa
:04016c004402000049
:020000040000fa
:040170004402000045
:020000040000fa
:040174004402000041
:020000040000fa
:04017800440200003d
:020000040000fa
:04017c004402000039
:020000040000fa
:040180004402000035
:020000040000fa
:040184004402000031
:020000040000fa
:04018800440200002d
:020000040000fa
:04018c004402000029
:020000040000fa
:040190004402000025
:020000040000fa
:040194004402000021
:020000040000fa
:04019800440200001d
:020000040000fa
:04019c004402000019
:020000040000fa
:0401a0004402000015
:020000040000fa
:0401a4004402000011
:020000040000fa
:0401a800440200000d
:020000040000fa
:0401ac004402000009
:020000040000fa
:0401b0004402000005
:020000040000fa
:0401b4004402000001
:020000040000fa
:0401b80044020000fd
:020000040000fa
:0401bc0044020000f9
:020000040000fa
:0401c00044020000f5
:020000040000fa
:0401c40044020000f1
:020000040000fa
:0401c80044020000ed
:020000040000fa
:0401cc0044020000e9
:020000040000fa
:0401d00044020000e5
:020000040000fa
:0401d40044020000e1
:020000040000fa
:0401d80044020000dd
:020000040000fa
:0401dc0044020000d9
:020000040000fa
:0401e00044020000d5
:020000040000fa
:0401e40044020000d1
:020000040000fa
:0401e80044020000cd
:020000040000fa
:0401ec0044020000c9
:020000040000fa
:0401f00044020000c5
:020000040000fa
:0401f40044020000c1
:020000040000fa
:0401f80044020000bd
:020000040000fa
:0401fc0044020000b9
:020000040000fa
:100200000f8320000e7f24000e01880000000000f4
:10021000000020000000e000020032000001200089
:100220002002880014000700990007000000e00089
:1002300003003a00a0c320000100200002003700a4
:100240000000200001002000810f7000010032003a
:1002500014000700000020000000e000020032004f
:100260000000020000000000fc0b02000000000083
:100270000040da000000fe004440a90020002000f9
:100280000000e00003003200100020009001880010
:100290004440a800000006008a1f78008b1f7800e9
:1002a00000000600a1028800800478000000eb0036
:1002b0001f003700e284440054a0b4009905ba003e
:1002c000e284440054a0b4009906ba00e2844400d9
:1002d00054a0b4000006eb00476fde00fd07b2003b
:1002e000ae018800636ce10003003a00eaff0700fa
:1002f0000000eb000e003700606ce10008003a00df
:10030000004deb000a05e800020039003420ec0043
:100310000af0a0008b05e900f9ff3e000400370059
:100320006168e100010032000086eb000b0007006d
:1003300019c7ba001905ba000e04e00003003a001c
:100340000a00e000dbff3a0000000600fe07b200f2
:10035000ae0288008a047800f5ff37000cd0a300b5
:10036000e20f4d001c00390089027800354dba00bb
:100370000a05e800020039003420ec000af0a00071
:100380008b05e9000f003200254dba000a05e80090
:10039000020039003420ec000af0a0008b05e900cf
:1003a000080032000c00e0000600320015cdba0053
:1003b0000a05e800020039003420ec000af0a00031
:1003c0008b05e9008984e80054a0b4000b00e0002c
:1003d000e2ff3a00000006009902ba00055d7800cd
:1003e0008b05e900f7ff3200c82ade00055d7800c2
:1003f0008b05e900f3ff32000c00e000f1ff320052
:1004000019ddba00eeff3700801f78003200f800d7
:100410003400f80010002000a00188001000200027
:10042000900188000000fa00100020005041880070
:100430008a60a9000080fa003400f9003200f90057
:100440004f00780000400600801f78003200f8005e
:100450003400f80010002000a001880010002000e7
:10046000900188000000fa008860a90010c0b30065
:100470002ce8b7000080fa003400f9003200f900df
:100480004f007800004006000040da000000fe0047
:10049000000005004f89de0082017800a0023700cd
:1004a00007f82700078361000638e10004003a00de
:1004b000f7072000878361008703710001003a007d
:1004c00003f0a200889fbe008a9fbe008c9fbe00e2
:1004d000470ade000480a100c71ade000580a100e3
:1004e000070028000785600087856100f70f20005e
:1004f0000720e1009e0032000728e1009c00320046
:10050000010678000400e000b4003200f707200084
:10051000878060000170a0000500e000c00032008c
:10052000f7072000878161000370a00005065200d4
:100530000f003a000b50e1000b0032000308e1000d
:1005400002003a000200e1007e0032000204500086
:1005500083845800040031000001fd008101fd008a
:100560008402fd008a05fd006044b80021003700c8
:100570000520e10005003d000001fd008101fd00b6
:100580008402fd008a05fd00050652007a60e10044
:10059000050035000170a1004722dd008480700055
:1005a0008a807000630037006044b800ef02660084
:1005b00007ff2f00070666000500e0000600340074
:1005c000f08312008714dd000511de00071bdd003b
:1005d000060171008519de007060e100050035003c
:1005e0000904780082047800030178008001eb00a0
:1005f000700656000b50e10003003a000200400074
:10060000838048000400370060041400e0841c006c
:1006100002005800838058000188a30006003200c1
:100620008100d1000080d3008984d3000884d300e6
:100630000402e800270037000178a30025003a00f3
:100640000100e000030032008186cf006986560079
:100650000a0037008c0020000000e00004003a008f
:1006600009007800880478000004eb007002520052
:100670008086cf000d0646000c06e9007060e100a0
:1006800006003500800078000900780088047800b2
:100690000004eb0070065600700252000c00e000ef
:1006a0000c0034008c08dd00f00316000703de00a8
:1006b000868070000c00dd00074bde000600700035
:1006c0008c4cdd000743de00868474000c44dd00a2
:1006d0000c0252006120e100200035006101600041
:1006e0000700280087816400f7ff270087836400e4
:1006f000070374000300e000060032008203730069
:10070000040032000000e800e08048000188a300f7
:100710000e003a00f70f20000720e1004a003d00dc
:100720000170a1004722dd00810072008a80700004
:100730000000be004f06be004f05be004f04be00c5
:10074000000006006000b800faff37008100d10009
:100750000080d3000402e800eeff370004017800b7
:10076000890174001b0107008a807000f1ff3700c7
:1007700042010700070278000001fd008101fd0031
:100780003e01070087027800850372000778a30006
:10079000040032000001fd008101fd00510107004d
:1007a000e4ff3700850362000768a30008003200f9
:1007b0000b50e10003003200f0ff2f00f1ff270093
:1007c000dcff37000001fd008101fd00d9ff37008b
:1007d0000468a300d7ff3200faff3700f8ff2700b4
:1007e000888360000b003a000000e00009003a0036
:1007f0008303640082837300020032000200be00a3
:10080000ccff37000b50e100ceff3a000200be00e3
:10081000c8ff370014002000810064003eff37004d
:10082000f8ff27008883610004003a000200e0001e
:1008300002003a008c007800beff3700150020004f
:100840008301640039ff370001f827000000200011
:1008500081007500b7ff3700889fbe008a9fbe00e9
:100860008c9fbe001b0020000202be0005866800af
:1008700006002800060666004709de00f20fb200f7
:10088000820032000243e80080003200c729de0007
:10089000f30fb2007d0032000343e8007b0032001a
:1008a000f107b2000170a000f507b2000570a000ca
:1008b000c708dd004903de00868070004700dd00c8
:1008c000c72add004923de00868272004722dd0050
:1008d00003055100040350008583580003003100d4
:1008e00000004000818048000a05e9008c1f780064
:1008f0008a9fbe0004005000858058000402420018
:1009000085824a0000004000818048000005eb001d
:100910000004be006033b8000406be000d48e100cc
:1009200056003100110009004dccd8000c01b80070
:100930000d02b8008481410060824a008283530026
:1009400003045c0084845c0060055d000a00e00034
:1009500025003a00800578000d40e1004900310093
:100960008800780007007800110009004d88d80041
:100970000c01b8000d02b8008481410060824a0079
:100980006003110083835b0004045c00e0845c006e
:100990000900e00021003a004f01be000300e00022
:1009a0002b003200e3016000070673008c817100a8
:1009b00001003200640070004200de004e5edd0087
:1009c0000c007000c258de0001e0a000ce0007005d
:1009d000cf017800818071004f06be004f05be0038
:1009e0004f04be00000006008c8343000d044c0041
:1009f000e0844c0060054d000000e9000a00e000c2
:100a0000d4ff32008c8343000d044c00e0844c0082
:100a100060054d000000e900ceff37000c034300e5
:100a20008d834b0060044c00e0844c000000e90022
:100a30000900e000d8ff32000c0343008d834b0017
:100a400060044c00e0844c000000e900d2ff370055
:100a50004200de004e5edd000c007000c258de0079
:100a600001e0a000cf0178000300e000daff3200cf
:100a700060001000e0801800d7ff3700f0ff2f0063
:100a8000aaff3700f0ff2f00b9ff37000404be00b3
:100a90007a000700870678000004fd008104fd004d
:100aa00076000700078366000678a3000300320083
:100ab0000960a7000800be002c0037000d78a300d5
:100ac000020032000800be00280037000778a300ab
:100ad00026003a0001f0a10009f0a1000668a30079
:100ae00003003200f1ff2700f0ff2f00baff3700ac
:100af0000d68a300030032000800be008c80700067
:100b0000b5ff37000768a30007003a000648a300b6
:100b100003003200f1ff2700f0ff2f00aeff370087
:100b20000d48a300030032006000b8008c80700004
:100b3000a9ff37000748a3000400320001f827008e
:100b4000000020008c807000a3ff3700c100070068
:100b50000004fd008104fd0002057800bd000700cf
:100b60000802be008a01780059ff37000160a0002a
:100b7000120220007241880097ff37000100e00058
:100b8000120032000500e00010003200889fbe0015
:100b90008a9fbe008c9fbe000006eb0001f8a300f8
:100ba0000300320060001000e08018000cf0a0008c
:100bb00005f8a3000300320060021200e0821a0070
:100bc0000cf0a2008005eb0041ff37006000b80088
:100bd000020005000100e000260032006101110062
:100be0007810e10023003c006022b8007010e100a2
:100bf0000400350080027800010078008000eb00de
:100c0000700151000200e00009003400700311007f
:100c1000062add00822ade008603dd00878272005c
:100c20000200de00860bdd00070070008208de0097
:100c300084817100f4ff27000482620084817100c6
:100c400004002800848262006102600005f0a600b2
:100c50000000060004827100070032000000e80076
:100c6000e0804800000006000002be006000b800fe
:100c7000efff37006000b8000000060027002000ea
:100c800001f0a70017002000470bde00f60fb200ae
:100c9000040032000643e8000a0032004702b300b5
:100ca0000000060001037800f607b200060370009a
:100cb00002003a000703b300000006008702b300f9
:100cc0000000060001037800f607b200060370007a
:100cd000020032000770a000000006000760a000bc
:100ce000000006000478a300040032000578a30089
:100cf000030032000168a30001003a000200be00b8
:100d00000160a00000000600810170002700320091
:100d10008002eb0001f8a300030032006000100025
:100d2000e080180015002000f407200002024200b5
:100d300020003400f7032000870360000604200031
:100d40000003630002082000000161004700de008c
:100d5000c909dd0000807100c708de000600e00060
:100d60000800320087037100060032001000b00056
:100d70000180b0000188a30002003200c108de003b
:100d80000402e800f107b200f30f20000320e100a5
:100d900003003d004722dd0081007200290037007a
:100da00001f827000000eb00260037006000b800c3
:100db00000000600680212007f20e10002003400fb
:100dc0006000b8001f0037006011b8007020e1001b
:100dd0000400350080017800010078008000eb00fd
:100de000700252000400e00009003400f003120019
:100df0000719dd008419de000703dd00868171001c
:100e00000400de00070bdd00060070008408de0031
:100e1000f7ff270083836300870371000600280023
:100e200003036300070032000700e00003003a00fc
:100e30006101600002817300020032001000b00006
:100e40000180b0000500a6000000060001f0a0002f
:100e5000000006004f0ade004709de00f107b2007d
:100e6000f20fb2000b003200f207b1000170a000d7
:100e7000c708dd00c901de00838070004700dd0087
:100e80000400a6000000060060001000e0801800ca
:100e900000000600810f700001003a00000006000b
:100ea0008182cf000500e00010003e008082cf006c
:100eb000ee8242007028e1000400390007003e0085
:100ec000800078000000eb000e00370070831200f5
:100ed0008600de000500dd000a0037007083520046
:100ee0008600dd000000eb0006003700e2825200c1
:100ef0008508dd00708312000603de008680700026
:100f00000500dd007507b0000501ea000400a60039
:100f10000000060060001000e080180000000600dd
:100f2000881f7800030478000300e00007003d00fc
:100f300060001000e080180060011900e0811900d5
:100f400002003b0001f02d00030037000400070001
:100f500008f0a70001f0a0004f0478000000060090
:100f6000889fbe008a9fbe0000827000040271004c
:100f700004827100260032000004be000200be00a0
:100f80006011b8006b092000950220000182cf009b
:100f90000a0039000541b1000082cf000700390086
:100fa0000541b1000982cf00040039000541b100bc
:100fb0000882cf00010039000541b100054252000e
:100fc000120032000a003b0082817100610164005e
:100fd0008100d1000080d3008984d3000884d3002d
:100fe0008b05e8000442e800f7ff3a0007003700ed
:100ff0000804440089844c000000480081804800b7
:101000008b05e9000442e900f9ff3a0003000700fc
:101010004f05be004f04be00000006008100200006
:10102000618055000b003d000b00200061fe2f0089
:101030000100e1001d003400828171006101640043
:101040008904d1000884d3000000e800faff3a00c8
:101050007100200061006400030070000200600065
:101060000900320061044400e0844c000988a500b6
:10107000050032008b05e8006808e10002003a0034
:101080008904d1000884d300f20f20000258e10047
:1010900005003d00c75ddd00f907b20089807500dd
:1010a00008007800000006000bf827008b0078008d
:0410b0000000050037
:020000040000fa
:1010b4000200fa00004f780011479800570107001a
:1010c40000cdb300700107001e4078006e010700d8
:1010d4001e4090006c010700620107000080fa00c6
:1010e400000006000000fa0081c1b300b0c1b300e3
:1010f400efff07008040eb00c0c1b300ecff070026
:1011040071c0b30090c1b300e9ff070011c0b30080
:10111400b0c6b300e6ff07008040eb00a0c1b300f7
:10112400e3ff07000080fa00000006000000fa0058
:10113400881f78003901070000cdb3005201070071
:10114400b0c3b300500107003401070010cdb30051
:101154004d0107000040eb005f0107000080fb0029
:101164004804dd000040eb005b0107000080fb0049
:1011740008007000e04088000040eb0056010700c2
:101184000080fb004804dd000040eb005201070032
:101194000080fb0008007000f04088000040eb0075
:1011a4004d0107000080fb004804dd000040eb0017
:1011b400490107000080fb0008007000004188001e
:1011c4000040eb00440107000080fb004804dd0000
:1011d4000040eb00400107000080fb0008007000a5
:1011e400104188000040eb003b0107000080fb0039
:1011f4004804dd000040eb00370107000080fb00dd
:1012040008007000204188000040eb003201070014
:101214000080fb004804dd000040eb002e010700c5
:101224000080fb0008007000304188000040eb00a3
:10123400290107000080fb004804dd0010c0b30052
:10124400250107000080fb00080070004041880071
:1012540004010700e0408000cf80de008cfc070022
:1012640002002000036824007afd07000040880083
:1012740011408800f0408000cf80de0084fc07002d
:10128400020020000368240072fd0700204088004b
:101294003140880000418000cf80de007cfc0700e4
:1012a40002002000036824006afd07004040880013
:1012b4005140880020418000cf80de0074fc07008c
:1012c400020020003330240062fd070060408800e3
:1012d4007140880030418000cf80de006cfc070044
:1012e40002002000333024005afd070080408800ab
:1012f4009140880040418000cf80de0064fc0700fc
:10130400020020003330240052fd0700a040880072
:10131400b140880010418000cf80de005cfc0700f3
:1013240002002000a33a24004afd070082eb2100ba
:101334002321240062fc0700c0408800d1408800bb
:101344004f0478000080fa00000006000000fa0054
:10135400f5e3a9008920a9009920a900f403a900b4
:10136400fcc3a900f583a900f543a800f523a9004f
:10137400f4c3a900f503a800f4a3a900f4e3a800aa
:10138400f623ef00c13d800000fc2f0000806000c8
:101394000000a000c03d88007626a8007e26a90093
:1013a400b13e800000f82f00008060007000b300a0
:1013b400b03e88007646a9007e46a900c13d800063
:1013c400f00f2c00808060000030200001007000cd
:1013d400c03d88007666a8007e66a900d13d8000e5
:1013e40000fc2f0000806000d03d88007606a80035
:1013f4007e06a900f5e3a8000080fa0000000600bc
:101404000c00fa00a00a2000002088000000000060
:10141400e01f8000610060000000e000fcff32007b
:1014240001208000010f780000000000e01f800010
:10143400620060000000e000fcff3a00a00a200007
:101444000020880000000000e01f800061006000b0
:101454000000e000fcff3200022080001207980028
:1014640000000000e01f8000620060000000e00057
:10147400fcff3a001e007800e10f500005003a001e
:101484000240800013408000220798003307980030
:101494002f0037001e007800e20f500005003a00cc
:1014a40022408000334080002207980033079800d0
:1014b400270037001e007800e30f500005003a00b3
:1014c4004240800053408000220798003307980070
:1014d4001f0037001e007800e40f500005003a009a
:1014e4006240800073408000220798003307980010
:1014f400170037001e007800e50f500005003a0081
:1015040082408000934080002207980033079800af
:101514000f0037001e007800e60f500005003a0067
:10152400a2408000b340800022079800330798004f
:10153400070037001e007800e70f500015003a003e
:10154400c2408000d34080002207980033079800ef
:10155400a0002000500798005e0090000020880042
:1015640000000000e01f8000610060000000e00057
:10157400fcff3200032080001307980000000000e5
:10158400e01f8000620060000000e000fcff3a0001
:1015940001003700000000000080fa00000006008f
:1015a4000000fa009aa4a9009a84a8000000000090
:1015b400d0248000700060000000e000fcff3a00ce
:1015c4000080fa00000006000000fa009aa4a800b7
:1015d4009a84a80000000000d024800070006000fd
:1015e4000000e000fcff3a000080fa000000060062
:1015f4000000fa009be4a9009b44a900e004200039
:10160400c02488007f26a9007706a8007726a800b2
:101614009be4a8000080fa00000006000000fa0025
:101624009a04a80000000000d0248000610060003b
:101634000000e000fcff3a000080fa000000060011
:101644000000fa009a24a80000000000d0248000c2
:10165400620060000000e000fcff3a000080fa0035
:10166400000006000000fa009a44a80000000000f0
:10167400d0248000640060000000e000fcff3a0019
:101684000080fa00000006000200fa00004f780013
:101694001e80fb00b024880000000000f1248000bc
:1016a40000002400008060000000e000fbff3a001e
:1016b400f124800000002800008060000000e000a9
:1016c40002003a000040eb000100370000c0eb00cc
:1016d4000080fa00000006000200fa00004f7800c3
:1016e4009a64a80000000000f024800062006000fa
:1016f4000000e000fcff32001e4078000004e0001f
:1017040002003a00a6ff070001003700aeff070001
:10171400a0248000004078000080fa000000060049
:101724000200fa00004f7800bcff070000cdb300b0
:10173400d5ff07001e407800d3ff0700b7ff07005e
:1017440010cdb300d0ff07001e407800e2ff070071
:10175400c4ff07000080fa00000006000000fa0041
:101764005fe6a8007e06a9007606a8008006a90008
:101774008206a8008406a9008a60a9008105800069
:10178400f0ff28000080600000c0a00080058800f1
:101794009a60a80083e0a8000080fa000000060018
:1017a4000000fa009421ef009021ef0040e82100ae
:1017b400900c880041058000f0ff28000080600044
:1017c40000d0a000400588008860a9009860a800a7
:1017d40094c1a80094c1a900a10c800000032000ba
:1017e40001007000a00c880095e1a8000080fa00b8
:1017f400000006000400fa00000f780011079800aa
:101804007bff070037fe0700d0fe0700d3ff070069
:10181400e3ff0700504180000000e00002003200b6
:10182400f7fe07002a28ef000010270021002000ff
:0818340001000700f7ff370077
:020000040000fa
:10183c00f03fb1000180b10006003500ee03090055
:10184c0000000000403fb1000180b100fbff3d00f3
:10185c001000b000203fb0000200350000800900ed
:08186c0000000000000006006e
:020000040000fa
:101874002a08000004000000800000001c0800008a
:101884000e00000080000000000800001c000000a2
:10189400800000002e08000002000000800000000c
:0418a4000000000040
:020000040000fa
:020000040005f5
:045e0000ffffff00a1
:020000040000fa
:020000040005f5
:045e2000ffffff0081
:020000040000fa
:020000040005f5
:045e3000fbffff0075
:020000040000fa
:020000040005f5
:045e3800baffff00ae
:020000040000fa
:020000040005f5
:045e4000ffffff0061
:020000040000fa
:020000040005f5
:045e4800ffffff0059
:020000040000fa
:020000040005f5
:045e5000deffff0072
:020000040000fa
:020000040005f5
:045e5800ffffff0049
:00000001FF
