:020000040000fa
:080000000001040000000000f3
:020000040000fa
:04000800bc02000036
:020000040000fa
:04000c00d20200001c
:020000040000fa
:04001400e8020000fe
:020000040000fa
:04001800fe020000e4
:020000040000fa
:04004800180200009a
:020000040000fa
:10020000ef8e20000eff27000e0188000000000086
:10021000000020000000e000020032000001200089
:100220002002880014000700120107000000e0000f
:1002300003003a000079220001002000020037008c
:100240000000200001002000810f7000010032003a
:1002500014000700000020000000e000020032004f
:1002600000000200000000001c240200000000004a
:100270000040da000000fe004440a90040012000d8
:100280000000e00003003200002020009001880000
:100290004440a800000006008a1f78008b1f7800e9
:1002a00000000600a1028800800478000000eb0036
:1002b0001f003700e284440054a0b4009905ba003e
:1002c000e284440054a0b4009906ba00e2844400d9
:1002d00054a0b4000006eb00476fde00fd07b2003b
:1002e000ae018800636ce10003003a00eaff0700fa
:1002f0000000eb000e003700606ce10008003a00df
:10030000004deb000a05e800020039003420ec0043
:100310000af0a0008b05e900f9ff3e000400370059
:100320006168e100010032000086eb000b0007006d
:1003300019c7ba001905ba000e04e00003003a001c
:100340000a00e000dbff3a0000000600fe07b200f2
:10035000ae0288008a047800f5ff37000cd0a300b5
:10036000e20f4d001c00390089027800354dba00bb
:100370000a05e800020039003420ec000af0a00071
:100380008b05e9000f003200254dba000a05e80090
:10039000020039003420ec000af0a0008b05e900cf
:1003a000080032000c00e0000600320015cdba0053
:1003b0000a05e800020039003420ec000af0a00031
:1003c0008b05e9008984e80054a0b4000b00e0002c
:1003d000e2ff3a00000006009902ba00055d7800cd
:1003e0008b05e900f7ff3200c82ade00055d7800c2
:1003f0008b05e900f3ff32000c00e000f1ff320052
:1004000019ddba00eeff37000a25040000000000e5
:100410001425040000000000c40e040000000000c9
:10042000500a04000000000048040400000000001e
:100430003600f800809fbe00829fbe00849fbe00f1
:10044000869fbe003200f8003400f8001000200043
:10045000a001880000202000900188000200fa001e
:100460000040eb00004f7800360037001e80fb0094
:100470006a00b90080007800808020000080400081
:10048000100078000000e0002d0032001e81fb000b
:100490006a10b90000007800e6004000808020006b
:1004a000008040001000be0061004000e080480075
:1004b0006a11b90082017800e280200002814100c7
:1004c0000089be001e80fb006a00b90000007800b1
:1004d000e600400080802000008040001001be0047
:1004e0001e80fb006a00b900000078008080e800f0
:1004f00080802000008040001000be00800f51006e
:10050000818f59000e003a001e80fb006a00b9007e
:10051000800078008080200000804000100078007b
:10052000000001001e80fb006a00b9008000780016
:10053000e0802000008140006000b8000089be001b
:100540001e4fe8001e407800e94f5000c7ff3600fc
:100550008900a9000080fa003400f9003200f90097
:100560004f03be004f02be004f01be004f00be0051
:100570003600f900004006003200f8003400f800b0
:10058000881f780018002000a8018800082020009b
:10059000980188004f0478000000fa008020a9002c
:1005a000ffff37003200f8003400f800881f7800a1
:1005b00018002000a8018800082020009801880069
:1005c0004f0478000000fa008060a900ffff3700a8
:1005d0003200f8003400f800881f7800180020006e
:1005e000a801880008202000980188004f047800a6
:1005f0000000fa008040a900ffff37003200f80039
:100600003400f800881f780018002000a801880036
:1006100008202000980188004f0478000000fa00ac
:100620008080a900ffff37000a00fa0011002000b7
:10063000b1bf9f00c0bf9f006a8057002c07070012
:100640004fb897000080fa00000006000600fa008c
:10065000000f780011079800220798001e009000f4
:10066000ae0090004c0d07002e0090000080fa00b4
:1006700000000600000005000000fa006881570035
:10068000cfb8970060438000100078006303070034
:100690000080fa0000000600850007008a0337008a
:1006a000010037000201e9000200e000050032000d
:1006b00030427800b1417800834f5200f9ff320098
:1006c00001003700000005000480fb008381fb006f
:1006d000030050000000060080017800020037008f
:1006e000b15978000201e9000200e000fcff3a0085
:1006f00000000600889fbe008a9fbe00800478002c
:100700000200e0005b00320001407800814c78007c
:1007100082814400f1f99f00e20f5100550036003c
:1007200091449800a1449800e1f99f00d1f99f00fd
:10073000e60f51004f003600b1449800c1f99f0008
:10074000e80f51004b0036000905ea00630565001b
:100750000a8444000a055100c1ff2f00010565000d
:100760000080fb008000eb0012102000131020001e
:100770004b070700008cbe000a01440060b99f00cf
:1007800071b99f00e80f55003a0036002004980028
:1007900031049800400498005104980020b99f004b
:1007a00031b99f0040b99f0051b99f00f80f550023
:1007b000300036006004980071049800000c980026
:1007c000110c9800200c9800310c9800400c9800f7
:1007d000510c980020b19f0031b19f0040b19f00a3
:1007e00051b19f0060b19f0071b19f0000b99f009f
:1007f00011b99f00640164007801410002044400c3
:10080000020555006011b8000203be000002be00e0
:100810000403be006022b8000000720081807200f4
:10082000020173008381730010003700009cbe003a
:100830000294be004004980051049800620498009d
:1008400073049800000c9800110c9800220c98007a
:10085000330c9800400c9800510c9800620c9800e2
:10086000730c98000a02b1000802b000ff0f550097
:10087000eeff3e00090078004f05be004f04be00a9
:10088000000006006143800091007800b705370042
:10089000000006002087200000000600fdff070082
:1008a00080438800704388000000060000000600b6
:1008b0004200fa00889fbe008a9fbe008c9fbe0047
:1008c00020079800110f9800034f9800110078003e
:1008d000400f980091009000610f98009e099000d1
:1008e000a3019000330f98001e0a9000440290006c
:1008f000140798009e0a9000b50290000527980002
:100900003204be002205be006022b8006033b80089
:100910000800be000a01be00770607000000e000e4
:1009200003003d000bf0a200d0c2b300040037006a
:100930004e0b90000628a30009003200b0c2b3009d
:100940008e239000804b78003e0890000000e90064
:10095000700f980011002000510f98001000370010
:100960004e0990000238a3000900320000c2b30013
:100970008e219000804978003e0a90000402e90030
:10098000740f980015002000550f980004003700e0
:100990003e0b9000760f98008003eb00570f9800f5
:1009a0000800be000a01be00c0ff0700f4ff2f00d0
:1009b000f5ff2f00f6ff2f00f7ff2700040260006d
:1009c0008582600006036100878361006000b800d3
:1009d0000200200003ff27000020e10001a8e10041
:1009e00002b0e10003b8e10011003a000e489000a7
:1009f0008000fb001104b1000e219000de09900080
:100a000003004100f98f500002003e00c18d20001c
:100a100001003700018e200055050700008e2000e0
:100a20005a0507005e0a90000401400015003700d7
:100a30000020e10001a8e10002b0e10003b8e100fc
:100a4000130036008e4a90008500fb001104b100af
:100a50000e239000de0b900007004300f98f50003a
:100a600002003e00418e200001003700818e2000f0
:100a70003f050700808e200044050700de08900037
:100a8000010140004e0a9000be099000500237005c
:100a90006022b8006033b8000800be000a01be0042
:100aa000150607000000e0006a0032006022b8006e
:100ab0000600200007ff23004417980055179800f0
:100ac00066179800771798008006eb000800be00b4
:100ad0000a01be00001f9800111f9800221f9800f5
:100ae000331f98000e269000070037008d06e8009f
:100af0000802be000a03be0044179800551798006c
:100b000066179800771798006022b800060020004a
:100b1000470224004e109000de1090006e119000ed
:100b2000fe119000640707000004be000205be002d
:100b30000002be000203be000e1890009e18900036
:100b40002e199000be199000eb0507000000e00090
:100b5000e6ff3d000c2798000006eb004e149000c5
:100b6000de1490006e159000fe15900025003700f1
:100b700040ed2f00808f560019003d000c00e00072
:100b800016003a006022b800060020000735240055
:100b90000e1890009e1890002e199000be1990001b
:100ba000450707000002be000203be00041f9800b4
:100bb000151f9800261f9800371f98006022b80064
:100bc00006002000073524000800be000a01be0010
:100bd000390707000004be000205be001c0020000b
:100be0006022b80006002000470224000800be0072
:100bf0000a01be00810607000004be000205be0017
:100c00008d06e9000802be000a03be000e1890001f
:100c10009e1890002e199000be199000b60507008e
:100c20000000e000d2ff35000800be000a01be004f
:100c30004017980051179800621798007317980092
:100c40000e1c90009e1c90002e1d9000be1d90005a
:100c5000080037006022b8000600200007ff2300cc
:100c60004417980055179800661798007717980052
:100c70008006eb008e4a90000500fb00e5040700ab
:100c8000104f98006e0b9000600020000600e000fe
:100c9000010035006e08900071c6b3009e4b9000b5
:100ca00081cf53000a003a00ee0890000100e000f6
:100cb000cf013200cf0137008d0f5000d3013c002f
:100cc000001f980052c6b300425f98001e00370014
:100cd0009e499000435f98000200370064c6b3004d
:100ce000445f98000000e800001f980060c6b30051
:100cf000ce5a900080cf520013003a000d00e00061
:100d000008003d006000b8000200200003ff23003f
:100d100040179800511798006217980073179800b1
:100d20008006eb0061c6b300415f980070c6b30057
:100d30001e499000804f5100030032008e19900030
:100d40008d814100031f98004e129000de1290002a
:100d50006e139000fe139000441f9800551f9800da
:100d6000661f9800771f98000800be000a01be00a9
:100d70000017980011179800221798003317980051
:100d80000006eb000802be000a03be0054079800ec
:100d90006507980076079800070f98003100370024
:100da0004e1a9000de1a90006e1b9000fe1b900001
:100db0000e1090009e1090002e119000be11900019
:100dc0000e060700660807000004be000205be000c
:100dd0007205070080027800250f98004e1a9000d7
:100de000de1a90006e1b9000fe1b90000800be00f3
:100df0000a01be00b00607000e1290009e1290007d
:100e00002e139000be139000ab0507000002be0039
:100e10000203be0007f0a2000417980015179800ff
:100e200026179800371798006022b80006002000a7
:100e3000470224004e189000de1890006e199000b2
:100e4000fe199000ed0507000002be000203be007f
:100e5000441f9800551f9800661f9800771f980040
:100e60000c06e8008e1a9000850f5600ccff350066
:100e70005e049000ee0490007e0590008e0d9000c0
:100e80006022b80006002000470124004e189000a0
:100e9000de1890006e199000fe199000860607007b
:100ea0000002be000203be00441f9800551f9800b8
:100eb000661f9800771f98000e1090009e109000fb
:100ec0002e119000be1190000b0507000000e000fd
:100ed0000f0035004e1a9000de1a90006e1b900035
:100ee000fe1b90000e1090009e1090002e1190009e
:100ef000be119000000507000000e00011003a005c
:100f0000ae0a90000508a300080032000d0037006b
:100f10006000b8006011b800401f9800511f980091
:100f2000621f9800731f9800060037006022b80007
:100f30006033b800441f9800551f9800661f980042
:100f4000771f98004e1a9000de1a90006e1b9000da
:100f5000fe1b90000800be000a01be005c050700f1
:100f60000002be000203be00041798001517980087
:100f700026179800371798006022b8000600200056
:100f8000470224004e109000de1090006e11900079
:100f9000fe119000480607000004be000205be00d6
:100fa0000002be000203be000e1090009e109000d2
:100fb0002e119000be119000d40407000000e00044
:100fc000090035008d06e80060c6b300ce5a9000d7
:100fd00080cf520008003a000e1b90000603e80084
:100fe000061f9800110037004e149000de14900088
:100ff0006e159000fe15900050c6b3004e5990003b
:10100000804f510009003a000802be000a03be00ea
:10101000441f9800551f9800661f9800771f98007e
:101020008002eb0045179800070037000800be005b
:101030000a01be00401f9800511f9800621f9800cf
:10104000731f98004d1798005e0e90000001eb0092
:10105000220f980032079800520798000d0f780071
:101060006a0037004e1a9000de1a90006e1b900046
:10107000fe1b90000e1090009e1090002e1190000c
:10108000be1190005d050700b50707000004be0013
:101090000205be00c1040700e90f50000100340042
:1010a00090002000ce0990000348a3000c003a00f5
:1010b0000000e0000a003a0071c6b3001e4a90002a
:1010c000814f520006003a00ce1290000500e00069
:1010d00003003d002e0b90008606e8002300370039
:1010e000be0390000700e0000c003a00ce10900014
:1010f0000100e00009003d00e1c2b3000e219000b4
:1011000001717e000c06e800fe0990008301e900f1
:10111000730f980014002000340798008e2290006e
:101120000c814200ae0e900085017800030037006c
:1011300001c3b300015978008d06e9000d00e000fd
:10114000fbff3a00032798002e0b9000060646008e
:101150000043b00080717e000c06e8000680ea00c3
:10116000fe0b900080834300770f98004e1a90008a
:10117000de1a90006e1b9000fe1b90000800be005f
:101180000a01be00cc0507000e1290009e129000ce
:101190002e139000be139000c70407000002be008b
:1011a0000203be0007f0a20004179800151798006c
:1011b00026179800371798006022b8000600200014
:1011c000470224004e189000de1890006e1990001f
:1011d000fe199000090507000002be000203be00d0
:1011e000441f9800551f9800661f9800771f9800ad
:1011f000ce1290008502e900451798005e0390002a
:101200000603e800560798002d0f9800de039000b3
:101210000e189000808f530005003d009e0890003e
:101220004100900065005000800f56008dff39008e
:101230009e0678003e0190000200e00007003a00a0
:10124000ce0990000348a30004003200e0c2b300be
:101250000e22900000727e000c06e8008e229000a4
:101260000c8042000048eb0051c6b3004e5b90007a
:10127000814f530038003a009e0390008700e90038
:101280000041eb0082f278008001eb000d00e000ed
:1012900002003d008d06ea0013002000220020001d
:1012a00001037800fe0a90008e239000000478006d
:1012b0000a00370001037800a40020001100090093
:1012c0008406d80001027800800678000443b0004c
:1012d00084737b000201e9008502e9008600e900d1
:1012e0000d00e000f3ff3a000200e000f1ff3c00d7
:1012f000750f9800072798000800780001824300c6
:10130000b2c2b3000300e00001003200d2c2b30059
:10131000024a78000101e9008e219000828041009c
:101320008e4a90000502fb001404b10053c6b300be
:10133000f90f520001003e0053c4b3008348780007
:101340007e0b90000683e900760f9800820f56000e
:1013500001003d0006030700ce0b90006380630090
:10136000e20f500015003a007e0890000000e000f7
:10137000120034000e209000040307008e2190001c
:10138000040037007e09900082804100e3707800fd
:101390000000e900de0a9000850f5000f9ff3d00d3
:1013a00003279800058041007e099000010320007a
:1013b000d0fc07000003eb00360f98000e209000d1
:1013c000f20207004e0a9000be099000000178006a
:1013d0008e2090002e0090006d0007004f06be008a
:1013e0004f05be004f04be000080fa00000006005a
:1013f00010002000e48f46002ffe3d00001f9800e3
:1014000057c6b300475f98004ffe37000d00e0005d
:1014100032fe3500001f980042fe37000200fa003d
:10142000881f780000047800e2bf9f0064815700a5
:101430000800780015020700980090000148a300fa
:10144000010032000080eb004f0478000080fa00b9
:1014500000000600889fbe0000047800480090004d
:1014600082047800808f54000100360080047800e8
:10147000090178005800900097fc07005800900080
:101480000900400050049800c80090008984500072
:10149000490498000048eb004f04be00000006001d
:1014a0001000780069fc3700900190000388a300c9
:1014b00001003200e7ff37000348a30001003a00b3
:1014c000f7ff070000000600881f7800000478007e
:1014d00000082000808f5000170035001008200001
:1014e000808f50000b00340030082000808f5000a7
:1014f00011003a00920078006880500000097800de
:101500003002be002003be00049cbe000694be0054
:1015100007003700920278006480520000097800ca
:101520001000be007e030700009cbe000294be00b7
:1015300010002000010037000000eb004f0478008d
:1015400000000600889fbe0000047800480090005c
:1015500082047800808f54000100360080047800f7
:1015600009017800580090005bfc070058009000cb
:101570000900400050049800c80090008984500081
:10158000490498000048eb004f04be00000006002c
:10159000f2874700889fbe008a9fbe008c9fbe00d6
:1015a0008e1f78008004780001057800020478001e
:1015b000830578006107620002003a008b0f540037
:1015c00008003900080178008a00780009007800d6
:1015d000b5ff07008b0f5400020039008805780022
:1015e0001e003700088655000c017800f00f5600e9
:1015f0000100360002012000010220007e80570019
:101600003cfc07008c067800050037000201200032
:10161000fe80570009007800a3ff0700f0865600ff
:10162000ef8f5600f9ff3e004461de0000ff2f00ff
:101630000091b90002014600fe80570009007800c1
:1016400099ff07000e00e00004003a00080178004e
:101650008a0078000900780093ff07000b007800eb
:101660004f0778004f06be004f05be004f04be0076
:101670002f01b10000000600000005000000050079
:1016800000000500000178000040eb008080fb00b6
:1016900081804000638b200063c278000404e00076
:1016a00003003a00708b200060c078000000060044
:1016b00092017800934f520004003a00708b200092
:1016c00060c078000309e800010037000040e8002e
:1016d000ea4f5000edff360000000600f687470095
:1016e000889fbe008a9fbe008c9fbe008e1f780020
:1016f000000578000104780083057800040678006e
:101700000000eb00c0b79f008080eb00d1b79f00c6
:10171000e0b79f00f2b79f000008200080bf9f0045
:1017200098007800010078008004eb000100370089
:101730008904e800304178000204e0000300320030
:1017400053c2b300834f5100f9ff3a000900e00093
:1017500004003200090178000a00780052ff0700f7
:10176000188c44001807780050c2b3009e4f100038
:101770003f013a000e07e8000e0c78001000370019
:10178000cfb097000100a0000b003700cfb097004a
:101790000110a00008003700cfb097000120a00082
:1017a00005003700cfb097000130a00002003700dd
:1017b000cfb097000140a000c1b79f00000ce80027
:1017c0001800780090407800b2c2b30082cf500079
:1017d000f1ff320007003c0002c2b30082cf50008c
:1017e000f0ff320032c2b30082cf500007003a004f
:1017f000efff3700d2c2b30082cf5000e0ff3200cb
:1018000002c3b30082cf5000e0ff3200a2c2b30097
:1018100082cf50000d003a00000ce8001c80e90067
:10182000000e780010007800e0b79f000000e00094
:101830000f003d00cfb097000100a200c1b79f008c
:101840000000ea00e0b79f000900370084010700ac
:10185000e0b79f0001003700000ce8001800780096
:101860009000fb000103b100e98f5000faff360041
:101870004fb097000008a300020032000010a10042
:10188000c0b79f0018007800e1c2b30090cf1000ed
:1018900016003a008000eb00d1b79f000000e8007e
:1018a000000c7800a1c2b30090cf100006003a00ef
:1018b000000ce8001c80e900000e780010007800a1
:1018c000d0b79f000900370065010700d0b79f001f
:1018d00001003700000ce800180078009000fb00c1
:1018e0000103b100e98f5000faff360008007800cc
:1018f00064ff070080467800180078001000fb00a5
:10190000c401070091062000810f5000380032000a
:1019100012003c0041062000810f500034003200cc
:101920000a003c0011062000810f50002000320008
:1019300031062000810f5000a0003200510220002b
:10194000810f5000bc003a00b4003700710620003f
:10195000810f5000b8003c008800370001072000cc
:10196000810f50005c00320007003c00e1062000bf
:10197000810f50007a003200f1062000810f5000e4
:10198000ad003a003900370051072000810f5000a8
:101990002700320081072000810f500042003200f2
:1019a00031072000810f5000a3003a008f0037005c
:1019b0008d80fb000c01780000fe2f000f0040001e
:1019c000c1fe07000000e000a80032001800780007
:1019d000000ce8009041780002fe2f000f0141004a
:1019e000f88057000a00780024ff07000e00370037
:1019f0008d80fb008c0178001200200000fe2f007b
:101a00000f0040008e0107000000e0009700320048
:101a1000180ce80002fe2f000f014100f88057006b
:101a20000a00780014ff070080844400900037000b
:101a30008d80fb008c0178000001eb0000fe2f0080
:101a40000f0040007e0107000000e0008700320028
:101a5000180ce80002fe2f000f014100f88057002b
:101a60000a00780004ff0700efff37008d80fb00bd
:101a70008c0178000001eb0000fe2f000f004000f9
:101a80006f0107000000e00078003200180ce80049
:101a900002fe2f000f014100f88057000a00780075
:101aa000f5fe0700e0ff37008d80fb008c01780019
:101ab0000001eb0000fe2f000f0040006001070056
:101ac0000000e0006900320018007800000ce80017
:101ad000904178001c0037008c0178000001eb0079
:101ae000010f200000fe2f000f00400054010700ee
:101af0000000e0005d003200180ce8000fb0970015
:101b00009fb097002fb19700bfb19700e00f500032
:101b1000e08f5800e00f5900e08f590009003a00ab
:101b2000cfb597006fb49700e08a20001701070037
:101b30000b0278008801780000017800e18a20001b
:101b40004700370083c7b30002fe2f000f0141009a
:101b5000f88057000a007800c8fe0700b2ff37007f
:101b60000b8144008d80fb008c01780000fe2f006b
:101b70000f004000860107003c0037008d80fb000d
:101b80000c01780000fe2f000f0040004efe070001
:101b90000000e0003500320018007800000ce8007a
:101ba0009041780002fe2f000f014100f88057009d
:101bb0000a0078003efb07009bff370000c8b30017
:101bc00080cf560029003a00180ce8001c80e9007c
:101bd000000e780010407800e0df9f001300200026
:101be000e2fd2f000f0141000800370000c8b300dc
:101bf00080cf56001d003a00180ce8001c80e90058
:101c0000000e78008001eb0010017800f88057008a
:101c10000a0078009afe070083ff370000c8b3006f
:101c200080cf560011003a00180ce8004fb2970020
:101c3000efb19700080037000e0c78000000eb00b1
:101c4000c0b79f00e0b79f000080eb00d0b79f00b7
:101c50000002eb008401780012002000418b20007c
:101c60000a0078004afe07006fff3700180ce800f2
:101c7000090078004f0778004f06be004f05be00f0
:101c80004f04be006f01b100000006008200fa00a0
:101c9000889fbe008a1f78000005780082047800c3
:101ca000c13f9f000004eb001000370009027800dc
:101cb00088017800a2f72f000f01410081f72f0063
:101cc0008f8040000a00780084fe07000800400072
:101cd000880f500004003d00b004200060478800d9
:101ce0000084eb0004003700000478004f389700b0
:101cf0001004e000edff3a00080078004f0578007e
:101d00004f04be000080fa0000000600889fbe005d
:101d10000004be000000eb000800e00018003200e4
:101d2000180090000058a3000d003200d800900069
:101d300068009000808f500009003600b8099000bc
:101d40000001eb0082007800080078000300010029
:101d5000d80090000080eb000100e0000800320095
:101d60000000eb00200c98006004980050049800dc
:101d70000900e00002003200180078002afa07008b
:101d80004f04be0000000600889fbe000004be0095
:101d90000000eb000800e000250032001800900071
:101da0000058a30011003200d80090006800900095
:101db000808f500009003600b80990000001eb0048
:101dc000820078000800780003000100d80090002d
:101dd0000080eb000100e000150032000000eb0085
:101de000200c98006004980050049800780a900035
:101df00008109000800f52000600310000025200cf
:101e000011002000cfa2de00612bb900180078007d
:101e1000390007000000eb0000149800700c9800d7
:101e20000900e0000200320018007800fef9070007
:101e30004f04be0000000600800078001000200063
:101e400002022000828f500004003200e98050001e
:101e5000e48f5000010036000000eb000000060097
:101e6000889fbe008a1f7800000578000a04780069
:101e7000984478000805e8000900fb00eeff070021
:101e80000000e000f9ff3a00b0c2b30080cf540078
:101e900005003200d0c2b3008000eb0080cf5400b8
:101ea00005003a00020037008000eb000100370017
:101eb000110020000804e8000000eb0003003700d8
:101ec0006a02b900020052000003b0003801fb00b2
:101ed00003fd2f0082814100e98f5100f8ff360099
:101ee0000100e00001003a000000ea004f05780020
:101ef0004f04be0000000600a0fd2f00f1ff2f00e0
:101f00003a0007004f89de008201780000000600d9
:101f10000200fa0081017800e0ff9f00930090002a
:101f20000188a30005003200d3009000805878009b
:101f30000080fb00d10198000a0037001200200049
:101f40008f80e9000300780055fd070080007800cd
:101f50000080eb000100e00002003200eff8970083
:101f60000180fb000080fa0000000600e8ff370057
:101f7000881f78000004780008007800bc00070083
:101f8000080078004f047800000006008000780008
:101f9000040037003104e00002003a000000510064
:101fa00000000600010178000108a300f9ff3a00d3
:101fb0008101780031017800f4ef2f000202420025
:101fc0000281ea00020162000408280004016100a5
:101fd000f7ff320083007800010178003104e0004f
:101fe000fdff3a00000051000000060002002f0033
:101ff000f3ff2f00820f5000838f5800040036003b
:102000000000ea00604788000080eb008080eb0061
:1020100000000600f1fb2f0080804000f98f500087
:1020200001003e000050a00000000600f9ff37004c
:102030000000060019fa0700fdff0700fcff37004b
:1020400084082000848f50001d0032000d003c00e9
:1020500014082000848f50002700320002003c004a
:10206000040820000400370024082000848f50005a
:102070003400320044082000848f500043003a00ae
:1020800036003700040a2000848f500027003200f9
:1020900004003c0004092000848f50003b003a00fb
:1020a00028003700020c2000828f50002f003200e1
:1020b000020f2000828f500034003a002b003700be
:1020c0009380e9000200e0000500320081097800f9
:1020d0001102fb00cfa2de00612bb90028003700ff
:1020e00081097800114278000482fb008002eb0035
:1020f0006033b8002200370013027800e400520079
:102100000200e00005003200810978001102be00e3
:102110004fabde0086037800190037008109780094
:102120001102be006033b800150037009380e9004b
:102130008109780011027800cfa2de00612bb9007e
:102140000f00370093027800e88052008109780080
:102150003102be002103be00090037009380e90070
:102160000200e00002003200f1ff37009380e90036
:1021700081097800110278008002eb006033b8001a
:102180000498be000690be00100005000000050087
:1021900044082000848f50002500320008003c00d5
:1021a00014082000848f50001400320024082000fe
:1021b000848f500024003200040820000c003700f7
:1021c00004092000848f50001f00320004003c00ee
:1021d00084082000848f500024003a000e0037004d
:1021e000040a2000848f500011003200040c2000eb
:1021f000848f50001d003a000d0037009380e900e5
:10220000810978009100780001087800cf91de0004
:102210008288be00140037009380e90081097800ad
:102220009100780001087800824878000e0037009d
:102230009380e90081097800910078000108780016
:1022400082087800080037009380e900810978004f
:1022500091007800010878006112b900612bb90083
:102260008498be008690be001000050000000500a6
:102270000101780080017800008268000408a30052
:102280000500320013003700324078008059780092
:102290000004e00014003200030278000208a300ea
:1022a000f9ff3a00030078000100370003187800b6
:1022b00082007800b2017800f5ef2f00838242009f
:1022c0000382ea0004826200050828000502620019
:1022d000f6ff3200000278003141780002587800a1
:1022e0000204e000fbff3a00040078000000060052
:1022f00000c0da00000006008f1fd1008f02070027
:102300008f87e9000000e00000000600809feb00de
:102310008a0207008f87e9000000e0000000060045
:1023200081037800490007000001be006000b8008a
:102330000478a30013003a006220e10015003e007b
:102340000d0039008301d1000281d3008180d300c8
:102350008301d1000281d3008180d3008301d100a9
:102360000281d3008180d3000538b000c42add008b
:10237000f300b2008381720007f0a70003f0a00011
:102380000000060083ff2700020020006110b90052
:10239000f9ff370003ff2700f7ff37001400fa00aa
:1023a000889fbe008a9fbe008c9fbe000004be00b6
:1023b0000205be00680047000a90be000890be00fb
:1023c000990207000070a7000bf0a1003043200025
:1023d0009e02900080825200b0fe2f000028e10093
:1023e00011003d00b0fc2f000028e1001500340072
:1023f0001e0990008e0890007e0090000501b0003c
:102400000201d1008180d3000080d3008502e80062
:10241000fbff3a000b00e000be023b006000100032
:10242000e0801800bb023700f0ff2f00f1ff27000b
:102430000b00e000b7023b00010028000000200074
:10244000b40237006000b800b2023700c70ade00ed
:10245000f107b200f50fb20008003200e1cf4200f0
:10246000020032000170a00024000500810f7000fe
:10247000010032000408050044000500810f7000cf
:1024800002003a00140005008502e9000000400047
:1024900081c04800fcff3b000170a0002400050043
:1024a000020ab900001bb9000200b8008100420016
:1024b00081004300000006008c9fbe008a9fbe0082
:1024c000889fbe00ca0107000bf0a200040037007d
:1024d0008c9fbe008a9fbe00889fbe00c40107007b
:1024e0000c48e1000b003a000c40e1000200320011
:1024f0008b010700400037008b066d003e00320064
:102500000af0a100f3012000f2ff2f006110b900d2
:10251000390037000c40e100370032000940e1008b
:10252000010036007e0107008a856d00cf5dde0068
:102530000b0575000006eb008804fd0089045400bb
:10254000010032007d0107000a04e00011003a009a
:102550000800e000280032000400400085804800a8
:1025600006014900878149000358a3001800320082
:102570008301d1000281d3008180d3000080d30089
:102580000c86d30001003900610676000804e800db
:1025900018003700040050008580580006015900db
:1025a00087815900060031000af0a2000c06ea00fb
:1025b00060001800e080180060011900e081190037
:1025c00003003a000004eb000005eb000a003700ae
:1025d0000348a30007003a000c064600000048002c
:1025e0008180480002014900838149000804e90014
:1025f000f7ff3700af013700c90137008c9fbe00dd
:102600008a9fbe00889fbe00790107000b056d0000
:102610000940e1000a003a000800e0000200320030
:102620000c40e10006003a000af0a1000c0478001a
:10263000f3012000f2ff2f006110b9009d00370068
:102640000c40e1009b0032000800e00099003200dd
:102650000c48e10002003a000004eb0003003700e0
:102660000900e00004003a000c0478006000b800a3
:102670006011b8008f0037000348a30006003a003d
:102680000000400081804800020149008381490028
:102690000804e900f8ff37000748a30006003a00e5
:1026a0000402420085824a0006034b0087834b00e8
:1026b0008904e900f8ff3700fd3f20008d845400b5
:1026c000090454008a1f7800881f780000047800ed
:1026d0008104780002057800830578006000b80066
:1026e0006011b8000d042000050037000804440004
:1026f00089844c000a054d008b854d00080031008f
:102700000404540085845c0006055d0087855d0037
:102710008381d2008d06d300f4ff3b000700370011
:102720000404440085844c0006054d0087854d0057
:102730008381d2008d06d300ecff3b0008044400e7
:1027400089844c000a054d008b854d00080031003e
:102750000404540085845c0006055d0087855d00e7
:102760000281d2008d06d300f4ff3b000700370042
:102770000404440085844c0006054d0087854d0007
:102780000281d2008d06d300ecff3b000804440018
:1027900089844c000a054d008b854d0008003100ee
:1027a0000404540085845c0006055d0087855d0097
:1027b0008180d2008d06d300f4ff3b000700370074
:1027c0000404440085844c0006054d0087854d00b7
:1027d0008180d2008d06d300ecff3b00080444004a
:1027e00089844c000a054d008b854d00080031009e
:1027f0000404540085845c0006055d0087855d0047
:102800000080d2008d06d300f4ff3b0007003700a4
:102810000404440085844c0006054d0087854d0066
:102820000080d2008d06d300ecff3b000b00e000df
:1028300004003d000404440085844c0006054d005e
:1028400087854d000006eb008301d1000281d30093
:102850008180d3000080d3000c86d3008301d10097
:102860000281d3008180d3000080d3000c86d30086
:10287000890474008b0575008b847400010032009c
:10288000610676004f0478004f0578000348a300e6
:1028900007003a000c06460000004800818048000e
:1028a00002014900838149000804e900f7ff37006d
:1028b000000137001a0137008c9fbe008a9fbe00be
:1028c000889fbe00ca0007000b056d008a057800ce
:1028d0000c40e10008003a000900e00082003a00e4
:1028e0000af0a1000c047800f3012000f2ff2f0091
:1028f0006110b9007c0037000c48e10004003a0088
:10290000870007000900e00077003a00f4ff370075
:102910000800e000740032000900e00002003a0004
:102920007f00070070003700ed3f20008d845400c9
:10293000090444008a1f7800881f7800871f7800e8
:10294000861f7800851f7800841f7800cb19dd0072
:10295000c515de008b8571004b11dd00450dde00d5
:102960000a057100cb08dd00c504de008984700013
:102970004b04dd000440b8000546b8008c804000e0
:1029800060814e00044eb8008c8040000d0149006b
:102990008001eb000318ad000456b8000c014100a3
:1029a0008d8149000002eb000420ad000646b8000e
:1029b0000c0141008d81490060024a00054eb800bb
:1029c0000c0141008d81490060024a000556b800a3
:1029d0008c8141000d024a008002eb000528ad0009
:1029e0000746b8008c8141000d024a00e0824a008f
:1029f000064eb8008c8141000d024a00e0824a0078
:102a00004f0678000c5eb8008c8141000d024a0030
:102a1000e0824a000656b8000c0242008d824a004d
:102a20000003eb000630ad00074eb8000c02420078
:102a30008d824a0060034b004f0678000c5eb800a0
:102a40000c0242008d824a0060034b000756b8001a
:102a50008c8242000d034b008003eb000738ad0071
:102a60004f0678000c5eb8008c8242000d034b00cc
:102a7000e0834b004f0678000c5eb8000c03430067
:102a80008d834b004f0478004f0578000748a30062
:102a90000a003a000000400081804800020149001d
:102aa0008381490004024a0085824a0006034b00e4
:102ab00087834b000804e900f4ff37000306780021
:102ac0008080700082807000010032006106760014
:102ad00087017800060178008500780004007800fe
:102ae00088047800780037008d0037008c06460097
:102af00002003a000000a600000006006000480046
:102b0000e080480060014900e08149000350a600d0
:102b1000000006008301d1000804e8000000060060
:102b20000002fd008102fd000203fd008303fd00a1
:102b30008804fd008a05fd00000006007048e100e1
:102b40001a0039007d0320000d48e1000a00390019
:102b500081057000830671008c8575008d85750078
:102b60000006eb000cd8e700610676006000b800b4
:102b70006011b800000006007048e1000b00390049
:102b80008c0578000006780001007800820078004b
:102b9000030178008001eb0003d8e70061067600ae
:102ba000f0845400f4ff3a00000006006160e10088
:102bb0000c48ad00f08514008b06dd000966de00d0
:102bc0000d0676008b0edd000900de000d007000a2
:102bd0008b16dd008908de008d8070008b1edd0005
:102be0000911de000d0171008919de0000000600e8
:102bf0000d002800fc7f20000d856100441cde00d4
:102c0000ef8161000c046400010032000340a00069
:102c10008d856300c43cde00ef8363008c84640018
:102c2000010032000740a0000c40e10006003a001d
:102c3000ef86610082867600818676008086760047
:102c400001003200180037000c48e10007003a008c
:102c5000ef86630086867600858676008486760019
:102c600002003200aeff07000f0037000348a30048
:102c700005003a0081067000828676008386760021
:102c8000010032000804e8000748a30005003a00ec
:102c900085067200868676008786760001003200ff
:102ca0008904e80000000600cf047800cf05780012
:102cb0001b003700000278008102780002037800d0
:102cc00083037800880478000cf0a70087ff0700d2
:102cd000fd7f20000d40e100040035000d04780068
:102ce0006000b8006011b8000d0037000800e00077
:102cf0000b003c0004007800850078000601780095
:102d000087017800e18414008cff07000cf0a70015
:102d100076ff07000004eb000340a7000804e8006a
:102d20004444dd006fc56100880175004f04be009a
:102d30004f05be004f06be0000000600889fbe0083
:102d40008a9fbe008c9fbe000404be000605be0024
:102d5000809fbe00829fbe0021000700040678000d
:102d60000800be000a01be001d00070084067800ae
:102d70004f03be004f02be008d4f76007fb097001c
:102d800013003300f0ff2f008b8f6b0006003b0019
:102d90000d0666000c00a7000a00370007f0a60029
:102da000100020000a003700880f5200898f5a0057
:102db0008a0f5b008b8f5b0003003900100020003e
:102dc00001003e000000200007f0a7000000ea001c
:102dd0004f06be004f05be004f04be0000000600b7
:102de00005ff270005826100070032000428e1008a
:102df00001003200240005000600070001003a002f
:102e0000440005000408050002000700f9ff3a002d
:102e1000140005006f82610081027000850271005c
:102e20008502720000000600800078005002be009b
:102e30005003be004439de00f700b200f37f2000eb
:102e400003016100090032000218e10016003a0097
:102e500085017200830173008381730000082000e4
:102e600015003a0040002000130037008501720071
:102e7000830173008381730005003a0004a8be003b
:102e800006a8be00100020000b0037000201e90078
:102e90000402420085824a0006034b0087834b00f0
:102ea0000748a300f9ff32000740a00004a8be00b5
:102eb00006a8be0020002000800098009200980024
:102ec00000000600680447000294be000094be00a3
:102ed000fc0447008694be008494be00090078007c
:102ee000d1ff070008007800cfff070099007800a5
:102ef000814f70000b003b000800be000a00070075
:102f00004f00b10003003700f3ff2700f2ff2f004e
:102f10006110b9004f06be004f05be004f04be0051
:102f20000080fa0000000600e48240001078a30050
:102f300007003200640240001178a3003400be0094
:102f40001401be00040032000330a7000000060098
:102f50003500be001501be000330a00000000600d1
:102f60001800fa00889fbe008a9fbe008c1f780060
:102f70000004be000205be000802be000a03be0037
:102f8000443ade00f07f200000066200204320006b
:102f9000800f560067003c006022b8006033b80024
:102fa0000800be00d4fc07000000e0006100320011
:102fb0000802be000a03be00b4b79f00c5b79f0059
:102fc000d6b79f00e7b79f00e00f5200e08f5a008e
:102fd000e00f5b00e08f5b000b003d006022b8005b
:102fe00006002000073324000800be000a01be00ce
:102ff00031fd07006022b8000600200007332400de
:1030000033fd07000a0037006022b80006002000e8
:10301000073324000800be000a01be002cfd070093
:103020006022b800060020000733240022fd0700bc
:103030000802be000a03be001ffd07000002be001a
:103040000203be00f4b79f0085bf9f0096bf9f009c
:10305000a7bf9f00e03f2000800f560017003c00f4
:103060007fb097008fb897001fb99700afb997004e
:10307000f0af9f0081b79f0092b79f00a3b79f005a
:103080006044b8006055b8003fb29700cfb29700d7
:103090005fb39700efb39700e00f5200e08f5a0044
:1030a000e00f5b00e08f5b0022003d006044b80051
:1030b0000a0020000bff2b001e0037006022b80022
:1030c0006033b8007fb097008fb897001fb99700a2
:1030d000afb997008dfc07000000e0000c00340041
:1030e0007fb297008fba97001fbb9700afbb9700c6
:1030f0000800be000a01be00f5fc07006022b8000f
:103100000600200007ff2300ebfc07000700370044
:103110007fb297008fba97001fbb9700afbb970095
:103120000800be000a01be00e9fc07000004be0062
:103130000205be000800be000a01be004f0678006e
:103140004f05be004f04be000080fa0000000600dc
:020000040000fa
:103150000003000003060000010400000602000056
:103160000500000003050000415800003a2000005f
:08317000256600000d000000bf
:020000040000fa
:103178001200fa00000f9800e3004700828a290035
:103188000b000900b258780030c3b3000000fb0000
:103198004400dd008040780030c3b3006f40600019
:1031a80000c07000804078000e08900071409800c0
:1031b80040c3b3000000fb004400dd0080407800fd
:1031c80050c3b3006f40600000c0700080407800ba
:1031d8000e0890006140980010c3b3000000fb0087
:1031e8004400dd008040780070c3b3006f40600089
:1031f80000c07000804078000e0890005140980090
:1032080020c3b3000000fb004400dd0080407800cc
:1032180050c3b3006f40600000c070008040780069
:103228000e0890003140980020c3b3000000fb0056
:103238004400dd008040780030c3b3006f40600078
:1032480000c07000804078000e089000114098007f
:10325800f0c4b3000000fb00a1042000810f50005f
:103268001e003200a1042000810f50000a003c001b
:1032780041042000810f50006100320061042000e9
:10328800810f50003200320011042000810f5000dd
:10329800420032005d003700e1042000810f500039
:1032a80054003200e1042000810f500004003c006b
:1032b800d1042000810f500028003200530037004d
:1032c800f1042000810f5000470032003105200032
:1032d800810f5000410032004c00370030c6b30067
:1032e8000000fb0011062000810f5000040032008e
:1032f80051072000810f50000400320043003700be
:1033080010c0b300104798001000370040c7b30042
:103318000000fb00c1062000810f500007003200aa
:10332800e1062000810f500001003200060037003e
:1033380060c0b300104798000300370070c0b300a6
:103348001047980000000000000000002f00370020
:1033580020c0b300104798002c00370040c7b300c6
:103368000000fb0021072000810f500004003200fc
:1033780091072000810f500004003200230037001d
:1033880030c0b300104798000300370050c0b300a6
:1033980010479800000000001c00370030c6b3003a
:1033a8000000fb0001072000810f500004003200dc
:1033b80051072000810f500004003200130037002d
:1033c80040c0b300104798000300370080c0b30026
:1033d80010479800000000000c00370090c0b300b0
:1033e800104798000900370000c1b3001047980043
:1033f8000600370010c1b3001047980003003700db
:1034080020c1b30010479800000000000e0890008b
:103418009e4090002140980060c0b300004f7800a3
:103428000e089000104090000080fb004400de0071
:10343800004078006a00b9000000780080407800f9
:103448000e089000104090006f40600000c04000df
:10345800204798002e4090000080fb004200de00cc
:10346800804078002e40900000c040001e4f400071
:103478002e409000634060000004e00004003a0021
:103488001e409000e24f500001003e001e4fe90030
:103498001e4090000080fb000000e900000047008b
:1034a800304090001e4f40000e08900030409000c1
:1034b8000080fb004400de00004078006a00b9008c
:1034c80000007800804078000e089000304090009e
:1034d8006f40600000c040001e4f40009e80fb000f
:1034e8007000200000017800110009008280d800d7
:1034f8008000fd00004f78000e0890009e40780084
:10350800414098000e089000104078000004a20086
:103518000004e000230032000e08900010409000e4
:10352800f90007008e089000904098000e0890005f
:1035380020409000f40007008e089000a0409800fa
:103548000e08900030409000ef0007008e089000b1
:10355800b04098000e08900040409000ea00070034
:103568008e089000c04098000e08900050409000cf
:10357800e50007008e089000d04098000e089000e3
:1035880060409000e00007008e089000e04098003e
:103598000e08900070409000db0007008e08900035
:1035a800f04098000080fa00000006000200fa00cf
:1035b800881f7800000f7800220020006004200097
:1035c80071052000031020008049780081497800a7
:1035d80082497800cc21ef00871f7800881f780087
:1035e8000500fc0057052000373b8800a80a20008a
:1035f800383b8800cd61a9004f047800cf037800dc
:103608001e007800104078000004e000220032001c
:103618001e007800104090000080fb004800dd008c
:10362800800078001e007800204090000080fb0099
:1036380001007000100f88001e00780030409000d4
:103648000080fb00c800dd001e00780040409000ac
:103658000080fb0001007000000f88001e00780049
:10366800504090000080fb00c800dd001e0078007c
:10367800604090000080fb0001007000f00e8800a0
:103688001e007800704090000080fb004800dd00bc
:10369800e00e8800270037001e00780010409000d8
:1036a800840007000080fb004804dd001e0078004d
:1036b800204090007f0007000080fb000800700099
:1036c800100f88001e007800304090007900070035
:1036d8000080fb004804dd001e0078004040900098
:1036e800740007000080fb0008007000000f8800cd
:1036f8001e007800504090006e0007000080fb001c
:103708004804dd001e007800604090006900070052
:103718000080fb0008007000f00e88001e00780092
:1037280070409000630007000080fb004800dd0047
:10373800e00e880010002800600e88004f04780012
:103748000080fa00000006000400fa001007980044
:10375800d861a80000000000c00e8000680060006a
:103768000000e000fcff3200910f8000010f78009c
:103778001e007800804078001e00900021409800cc
:103788001e0078004800de00804078001e0090008f
:1037980011409800810f8000010f78001e0078000a
:1037a800804078001e009000414098001e0078007c
:1037b8004800de00804078001e00900031409800ec
:1037c800710f8000010f78001e007800804078009b
:1037d8001e009000614098001e0078004800de003e
:1037e800804078001e00900051409800610f8000d2
:1037f800010f78001e0078004800de008040780045
:103808001e009000714098001e0090001040780043
:103818000004a2000004e000230032001e00900013
:1038280010409000380007009e00900090409800db
:103838001e00900020409000330007009e0090007a
:10384800a04098001e009000304090002e00070015
:103858009e009000b04098001e00900040409000ec
:10386800290007009e009000c04098001e009000ac
:1038780050409000240007009e009000d04098001f
:103888001e009000604090001f0007009e009000fe
:10389800e04098001e009000704090001a00070059
:1038a8009e009000f0409800d861a9000080fa00be
:1038b800000006000200fa00004f78009e80fb001e
:1038c800d0cc2c000008b8004308de000040780087
:1038d8000080fb004400dd00804178001e81fb0071
:1038e800d0cc2c000010b8004308de006a00b900f4
:1038f80000007800000051000040780000c071000e
:103908000080fa00000006000200fa00004f78006c
:103918001e80fb004400de00004078006a00b90009
:1039280000007800804078001e4178006f406100f8
:1039380000c040000080fa00000006000200fa0003
:10394800000f78001e00780018ff07000080fa00ba
:10395800000006000200fa00000f78001e00780040
:1039680079ff07000080fa00000006000800fa004e
:10397800889fbe008a9fbe008c9fbe0041098000c0
:10398800f07f2e0000806000400988004109800017
:1039980000302000010070004009880041098000c3
:1039a800f0f32f00008060004009880028a1a900da
:1039b8002881a9002841a90000202000900988003a
:1039c80031e1a90031c1a8003181a8003141a80026
:1039d8003121a80031a1a8003101a9008109800086
:1039e800f0f92f000080600080098800a10980009c
:1039f800f0ff230000806000a0098800a109800072
:103a0800000c200001007000a0098800a1098000b6
:103a1800c003200001007000a0098800a0098000f0
:103a28003000b300a00988002a61ef0010002000d0
:103a3800700988002de1a8002dc1a8002d81a800db
:103a48002da1a9006109800000602000010070001c
:103a5800600988002d01a80029e1a800008823003a
:103a6800110020008c0107000088230011002000ad
:103a7800890107003203200001002800010f7800a7
:103a88004100200011079800a00180009e019000cd
:103a98009e007800a301880082087800a0018800b1
:103aa80050032000010020007b01070022032000b2
:103ab80001002800210798004100200031079800e4
:103ac800a0018000be019000ae009000a301880014
:103ad80082087800a001880050032000010020001f
:103ae8006d010700820320000c0028004d00200013
:103af800a00180008d0178008c007800a301880067
:103b080082087800a00188005003200001002000ee
:103b180061010700c20020000a0028004b002000b5
:103b2800a00180008b0178008a007800a30188003a
:103b380082087800a00188005003200001002000be
:103b480055010700620020000800280049002000f5
:103b5800a00180008901780088007800a30188000e
:103b680082087800a001880050032000010020008e
:103b7800490107007800070010c0b3004f06be00d7
:103b88004f05be004f04be000080fa00000006008a
:103b98000400fa00000f7800110798000a003700a7
:103ba8001e007800104078000000fb000000e000d4
:103bb800110032001e007800104078001e0fe80047
:103bc80010000700000000001e00900000f0a70091
:103bd8000000ea000000ea004f00de000040780024
:103be8009e0090008100e900110798000004e000a1
:103bf800ebff3a0001003700000000000080fa00e7
:103c0800000006000200fa00889fbe00004f7800fe
:103c18001e00fb00ea0f50000b003200ea0f5000b4
:103c280003003c00e80f50000e003200140037007b
:103c3800ec0f500010003200ed0f500010003a0059
:103c4800640007004100370000c8bf000004e0001e
:103c580002003a00050107003c003700f8000700a1
:103c68003a0037007c00070000c2b300e5ff0700f8
:103c780079000700350037003700070033003700a8
:103c880001c8bf00f04f500020003a000168ef0063
:103c980000c8bf000004e0000f003a00020c20003a
:103ca8000400280045002000a0018000850178005c
:103cb80084007800a301880082087800a0018800a9
:103cc8005003200001002000f300070010c0b300db
:103cd80000e8b7000d0037000408200002002800a3
:103ce80043002000a0018000830278008200780051
:103cf800a501880084087800a001880050032000ee
:103d080001002000e40007000068ef001e01fb002e
:103d18002800280049002000a001800089017800bf
:103d280088007800a301880082087800a001880034
:103d38005003200001002000d700070001c8bf0081
:103d48000040e80001e8b700000000004f04be0092
:103d58000080fa00000006000000fa00889fbe00fc
:103d6800130020000000280041002000a20180006c
:103d78000102780000007800a40188000308780098
:103d8800a2018800a088200001002000c2000700ce
:103d9800220020000800280049002000a00180001f
:103da8008901780088007800a301880082087800db
:103db800a0018800a088200001002000b6000700ac
:103dc8000068ef000168ef004f04be000080fa00b1
:103dd800000006000000fa00048020001442780069
:103de8000404e0000d003a00040820000200280046
:103df80043002000a0018000830278008200780040
:103e0800a501880084087800a001880050032000dc
:103e180001002000a00007000c003700030c200060
:103e28000000280041002000a20180000102780063
:103e380000007800a401880003087800a201880027
:103e48005003200001002000930007000168ef00e4
:103e58000080fa00000006000200fa001680200028
:103e6800164378000604e00028003a0000c8bf00a6
:103e78000004e0000f003a00020c200004002800b3
:103e880045002000a00180008501780084007800aa
:103e9800a301880082087800a00188005003200050
:103ea800010020007c00070010c0b30000e8b70044
:103eb8000d003700040820000200280043002000fd
:103ec800a00180008302780082007800a5018800a4
:103ed80084087800a0018800500320000100200019
:103ee8006d0007000068ef000040eb00004f78000d
:103ef80002003700190007001e4fe8001e40780036
:103f0800ee4f5000fbff36001200370012802000f1
:103f1800124178000241e9008241780011802000b6
:103f28008348780003012000000028004100200099
:103f3800a20180000102780000007800a401880036
:103f480003087800a2018800500320000100200027
:103f5800510007000080fa00000006000000fa0087
:103f6800889fbe008a9fbe004301200000002800f1
:103f780041002000a20180000102780000007800c2
:103f8800a401880003087800a201880050032000db
:103f9800010020004000070001c8bf000040e80001
:103fa80001e8b70001c8bf00f04f500020003a00f8
:103fb8000168ef0000c8bf000004e0000f003a00ed
:103fc800020c20000a0028004b002000a0018000fd
:103fd8008b0178008a007800a301880082087800a5
:103fe800a001880050032000010020002a000700db
:103ff80010c0b30000e8b7000d0037000208200029
:104008000800280049002000a001800089017800ec
:1040180088007800a301880082087800a001880041
:1040280050032000010020001b0007000068ef007b
:104038004f05be004f04be000080fa0000000600d5
:104048000200fa000040eb00004f78000200370041
:1040580081ff07001e4fe8001e407800ef4f500018
:10406800fbff36000080fa00000006000200fa009c
:104078000040eb00004f780002003700b7ff070050
:104088001e4fe8001e407800ef4f5000fbff36003f
:104098000080fa00000006000400fa00008fbe004d
:1040a80005003700000000000081eb008081eb0074
:1040b8001e0f41005e9749001e00be00e00f500031
:1040c800e08f5800f7ff3a000080fa000000060071
:1040d8000200fa00004f78001e4078000004e0005b
:1040e8000d003200f20020000400280045002000e6
:1040f800a00180008501780084007800a301880071
:1041080082087800a00188005003200001002000e8
:10411800e1ff07000c003700c4002000020028005f
:1041280043002000a001800083027800820078000c
:10413800a501880084087800a001880050032000a9
:1041480001002000d4ff07000080fa0000000600ec
:104158000200fa00000f78001e007800e40f5000fb
:1041680018003200e40f500007003e00e20f500034
:1041780010003200e20f500010003e00e10f500026
:104188000a00320019003700e60f50001100320013
:10419800e60f50000d003900e70f50000f00320005
:1041a800e80f50000f003200100037006606a80024
:1041b8000e0037006626a8000c0037006646a800e7
:1041c8000a0037006666a800080037006686a8005f
:1041d8000600370066a6a8000400370066c6a800d7
:1041e8000200370066e6a800000000000080fa0020
:1041f800000006000200fa00000f78001e00780098
:10420800e40f500018003200e40f500007003e0091
:10421800e20f500010003200e20f500010003e0084
:10422800e10f50000a00320019003700e60f500075
:1042380011003200e60f50000d003900e70f500062
:104248000f003200e80f50000f0032001000370056
:104258006606a9000e0037006626a9000c00370084
:104268006646a9000a0037006666a90008003700fc
:104278006686a9000600370066a6a9000400370074
:1042880066c6a9000200370066e6a9000000000023
:104298000080fa00000006000200fa00000f780013
:1042a8001e007800e40f500038003200e40f500080
:1042b80007003e00e20f50001a003200e20f5000e3
:1042c80025003e00e10f50000a0032007000370060
:1042d800e60f500047003200e60f50003800390062
:1042e800e70f500050003200e80f50005b0032002a
:1042f800670037003033800000407800614060007c
:104308000004a200614060000080fb0061006000c2
:10431800313380000100a1000100700030338800b3
:104328005b003700303380000000d100614060003e
:104338000004a200614060000080fb006100600092
:1043480000004000313380000110a100010070001e
:10435800303388004e003700303380004200de00e2
:10436800614060000004a200614060000080fb0022
:10437800610060004200dd00313380000120a100af
:10438800010070003033880041003700303380006e
:104398004300de00614060000004a200614060004c
:1043a8000080fb00610060004300dd0031338000c5
:1043b8000130a1000100700030338800340037005c
:1043c800303380004400de00614060000004a20039
:1043d800614060000080fb00610060004400dd0077
:1043e800313380000140a1000100700030338800a3
:1043f80027003700303380004500de006140600050
:104408000004a200614060000080fb0061006000c1
:104418004500dd00313380000150a100010070002b
:10442800303388001a003700303380004600de0041
:10443800614060000004a200614060000080fb0051
:10444800610060004600dd00313380000160a1009a
:1044580001007000303388000d00370030338000d1
:104468004700de00614060000004a2006140600077
:104478000080fb00610060004700dd0031338000f0
:104488000170a100010070003033880000000000b6
:104498000080fa00000006000200fa00000f780011
:1044a8001e007800e40f50002a003200e40f50008c
:1044b80007003e00e20f500016003200e20f5000e5
:1044c8001c003e00e10f50000a0032004c0037008b
:1044d800e60f50002f003200e60f5000250039008b
:1044e800e70f500034003200e80f50003b00320064
:1044f80043003700303380006100600000f0a700ff
:104508000000ea000000ea004f00de0000407800ea
:104518003c003700303380006200600000f0a700e4
:104528000000ea000000ea004f00de0000407800ca
:1045380034003700303380006400600000f0a700ca
:104548000000ea000000ea004f00de0000407800aa
:104558002c003700303380006800600000f0a700ae
:104568000000ea000000ea004f00de00004078008a
:1045780024003700303380007000600000f0a7008e
:104588000000ea000000ea004f00de00004078006a
:104598001c003700313380000002200000806000da
:1045a80000f0a7000000ea000000ea004f00de006b
:1045b80000407800130037003133800000042000e9
:1045c8000080600000f0a7000000ea000000ea0098
:1045d8004f00de00004078000a00370031338000c9
:1045e800000820000080600000f0a7000000ea003a
:1045f8000000ea004f00de000040780001003700ac
:104608000040eb000080fa00000006000200fa00fb
:10461800000f78001e007800e40f500018003200e8
:10462800e40f500007003e00e20f50001000320077
:10463800e20f500010003e00e10f50000a00320067
:1046480019003700e60f500011003200e60f500045
:104658000d003900e70f50000f003200e80f50003e
:104668000f003200100037006206a9000e00370064
:104678006226a9000c0037006246a9000a0037002c
:104688006266a900080037006286a90006003700a4
:1046980062a6a9000400370062c6a900020037001c
:1046a80062e6a900000000000080fa000000060091
:1046b8000000fa00f5e3a9008920a9009920a900c3
:1046c8000024ef00f403a900f463a900f583a9000e
:1046d800f543a800f523a900f4c3a900f503a80031
:1046e8000008200020208800f4a3a800f5e3a80013
:1046f800c13d800000fc2f0000806000a001b300d5
:10470800c03d8800dae6a800e2e6a900313f800053
:10471800f00f280080806000007020000100700009
:10472800303f8800db06a900e306a900413f80006e
:10473800f00f28000080600000b0a000403f880013
:10474800dac6a900e2c6a900713f8000f00f280070
:10475800808060000090200001007000703f880099
:10476800db26a900e326a900df26a8000080fa00be
:10477800000006000200fa00004f78001e80fb00cf
:104788000020880000000000e01f80006100600039
:104798000000e000fcff32000020800000407800ac
:1047a80004e8b70004c8bf000080fa000000060053
:1047b8000000fa0070062000001d88009863a90018
:1047c8009b43a800c11c800090ff2f000080600060
:1047d800c01c88009803a900c11c8000f0cf2f00de
:1047e80000806000c01c88009863a9009b43a80053
:1047f8009be3a9009ba3a900a13d800000fc2f001a
:1048080000806000a000b300a03d8800213f800028
:10481800f00f280080806000003020000100700048
:10482800203f880099e3a8000080fa0000000600f5
:104838001000fa000080eb00000f78000a02070061
:104848009bff0700daff0700100020006fff07003a
:10485800200020006dff07001000200092010700d3
:104868000000eb0037010700421f20000300200072
:10487800a0502200ff000700a20a20000300200029
:1048880040512200fb000700c08c20008040eb0054
:1048980001487800408d20008040eb0001487800f6
:1048a800c08c200032fa0700c08c20003ffb0700b4
:1048b800820020008000eb00408d20008bef070075
:1048c8000000eb00ae000700500020009e0007002b
:1048d800c0002000e9ef070050002000700007002a
:1048e80030079800c08c200097fb070006c8bf005f
:1048f8000004e000170032003e0090009e0f5000b8
:1049080006003a0082002000418d2000c08c200063
:1049180061ef07000000e0000e0032000668ef00bb
:104928001e009000ae009000809fbe00408b2900c2
:10493800801f78004eef0700e6875700be00900002
:10494800010f780082002000c18c2000408d2000db
:104958005fef070005c8bf000004e0000300320055
:10496800100020004cfe07000568ef001000200032
:10497800170107000004e000210032002000200099
:10498800f3fd070030052000e01c880050042000db
:10499800e01c880000052000e01c8800df26a90034
:1049a8000010270021002000a101070010c0b3005b
:1049b80070ff0700a0cab3006eff0700a0cab300cb
:1049c8006cff07000080fb00400798006800470064
:1049d800cf80de0060079800710798006c004700e0
:1049e8001001be0012079800230798000010270046
:1049f800210020008e010700df26a800b6ff37003f
:104a080020002000fbfd0700b3ff37000000fa007c
:104a180010c0b30005e8b7000080fa0000000600e7
:104a28000000fa0010c0b30006e8b7000080fa00e2
:104a3800000006000400fa00100798001e0090000d
:104a4800e40f500004003200e50f5000040032006b
:104a580000c0eb0010003700000000000100370024
:104a6800000000001e0090000d000700d1cc2c00b3
:104a78000100b8004308de00004f780040c6b300cc
:104a88009e40780080cf50000200360040c6b30038
:104a9800004f78001e4078000080fa0000000600f1
:104aa8000400fa00100798001e009000e40f500060
:104ab80004003200e50f5000040032000080eb00d3
:104ac8001f00370000000000010037000000000050
:104ad8009e009000613a88004627a8000000eb007d
:104ae800000f780002003700000000001e0fe800e9
:104af800703e20009e007800808f5000faff36003c
:104b08004627a9000000eb00000f780002003700dc
:104b1800000000001e0fe800703e20009e00780094
:104b2800808f5000faff360000000000303a800005
:104b3800610060000000e000fcff32009038800057
:104b48000080fa00000006000200fa00000f78005a
:104b58001e007800e40f500003003200e50f5000fb
:104b680004003a007ea6a8007e86a80010c0b30004
:104b7800010037000040eb000080fa00000006004a
:104b88000200fa00000f78001e0078000000e00024
:104b98001a003a00413a8000f0ff230000806000cc
:104ba800403a880000c0eb004ae7b700313a80007d
:104bb800f0f02f0000806000303a8800513a800001
:104bc800f00f2e000080600000c0a000503a88005e
:104bd800313a8000f0cf2f0000806000303a880022
:104be800413a800030f82f0000806000403a880089
:104bf80047e7a80010c0b300010037000040eb00f1
:104c08000080fa00000006000400fa00100798006f
:104c18000040eb00004f7800110037001e80fb00b9
:104c28006a00b90080007800808020000080400081
:104c3800900078001e009000808f500007003a0016
:104c48001e80fb006a00b900800078008080200088
:104c5800008040008000eb00010878001e4fe8004b
:104c68001e407800e94f5000ecff36000080fa0043
:104c7800000006000800fa001007980022079800b4
:104c88003307980002c8bf000004a2000004e00037
:104c9800020032000040eb00280037000040eb0023
:104ca800004f7800210037001e80fb006a00b90021
:104cb800800078008080200000804000100078008c
:104cc8000000e00018003a001e80fb006a00b900ee
:104cd8008000780080802000008040009e009000c6
:104ce800010878001e80fb006a00b9008000780087
:104cf800a0802000008040002e019000be0190009e
:104d08000288be001e80fb006a00b900800078009f
:104d1800e0802000008140006000b8000089be00eb
:104d280010c0b300050037001e4fe8001e40780091
:104d3800e94f5000dcff36000040eb000080fa002d
:104d4800000006000200fa00000f78001e0078003c
:104d58000000e00003003200e10f500015003200af
:104d680018003700420620008000eb0080802000f9
:104d78005eee07006105800080ff2f000080600064
:104d88000000a000600588008900a9009a21ef00b2
:104d980000e82300f00c880000002a00100d8800ad
:104da8009900a80010c0b30002e8b70010c0b30013
:104db800050037009900a9000268ef0010c0b30091
:104dc800010037000040eb000080fa0000000600f8
:104dd8000200fa00000f78001e007800e20f500071
:104de80013003200e20f500003003e00e10f5000b4
:104df8000600320029003700e30f5000150032008a
:104e0800e40f50001c0032002400370001358000f8
:104e1800000420000080600000f0a7000000ea0005
:104e28000000e9004f00de00004078001c00370059
:104e380001358000000820000080600000f0a70015
:104e48000000ea000000e9004f00de0000407800a2
:104e58001300370021338000000820000080600024
:104e680000f0a7000000ea000000e9004f00de00a3
:104e7800004078000a003700013580000000220059
:104e88000080600000f0a7000000ea000000e900d0
:104e98004f00de0000407800010037000040eb00c2
:104ea8000080fa00000006000200fa00000f7800f7
:104eb8001e007800e20f50000d003200e20f500093
:104ec80003003e00e10f50000600320010003700da
:104ed800e30f500009003200e40f50000a003200ce
:104ee8000b0037009ec6a800a6c6a9000800370018
:104ef8009ee6a800a6e6a9000500370062e6a8001d
:104f08006ae6a900020037009fa6a800000000007a
:084f18000080fa000000060011
:020000040000fa
:104f200000080000020000008000000008080000e7
:104f30006400000080000000020800000200000081
:104f400080000000cc08000010000000800000007d
:104f500004080000020000008000000006080000b5
:104f60000200000082000000010000006c08000048
:104f70004200000082000000700872000872080001
:104f8000010003000000000000000000000000001d
:104f90000000c4000e0000000000000000500a00e5
:104fa00048040000000000000000000000000000b5
:104fb00000000000000000000000000000000000f1
:104fc00000000000000000000000000000000000e1
:104fd000dc0800001000000082000000494e46007e
:104fe00000696e0066004e00414e00006e616e006a
:104ff00000000000ae0800001e000000820000005b
:10500000286e69006c29000025006800076c090003
:105010004c836a009074a0007ac000008068880009
:1050200000846c0082008100ec0800000200000097
:085030008000000000000000f8
:020000040000fa
:10503800f03fb1000180b10006003500ee03090021
:1050480000000000403fb1000180b100fbff3d00bf
:105058001000b000203fb0000200350000800900b9
:0850680000000000000006003a
:020000040000fa
:105070000000fa003ffa07000080fa000000060076
:020000040000fa
:020000040015e5
:047e0000ffffff0081
:020000040000fa
:020000040015e5
:047e2000ff1f000040
:020000040000fa
:020000040015e5
:047e30000bffff0045
:020000040000fa
:020000040015e5
:047e3800beffff008a
:020000040000fa
:020000040015e5
:047e40009fffff00a1
:020000040000fa
:020000040015e5
:047e4800fbffff003d
:020000040000fa
:020000040015e5
:047e5000deffff0052
:020000040000fa
:020000040015e5
:047e5800efffff0039
:00000001FF
